:100000000C94AD000C94D5000C94D5000C94D50044
:100010000C94D5000C94D5000C94D5000C94D5000C
:100020000C94D5000C94D5000C94D5000C94D500FC
:100030000C94D5000C94BD0F0C94D5000C94D500F5
:100040000C94220D0C94D5000C94D5000C94D50082
:100050000C94D5000C94D5000C94D5000C94D500CC
:100060000C94D5000C94D50005A84CCDB2D44EB953
:100070003836A9020C50B9918688083CA6AAAA2A4B
:10008000BE000000803F07634236B79BD8A71A39ED
:10009000685618AEBAAB558C1D3CB7CC5763BD6DD6
:1000A000EDFD753EF6177231BF000000803F08007D
:1000B0000000BE922449123EABAAAA2ABECDCCCCE7
:1000C0004C3E00000080BEABAAAAAA3E0000000081
:1000D000BF000000803F0000000000084178D3BB53
:1000E0004387D1133D190E3CC3BD4282AD2B3E6800
:1000F000EC8276BED98FE1A93E4C80EFFFBE01C4F1
:10010000FF7F3F0000000000000000080002010027
:1001100000030407000000000000000000000000D1
:10012000250028002B0000000000240027002A00E2
:10013000040404040404040402020202020203038D
:100140000303030301020408102040800102040895
:100150001020010204081020701711241FBECFEFD9
:10016000D8E0DEBFCDBF11E0A0E0B1E0E8EFFFE3F3
:1001700002C005900D92A038B107D9F726E0A0E89B
:10018000B1E001C01D92AF3CB207E1F710E0CDEA4B
:10019000D0E004C02197FE010E945E1ACC3AD1073C
:1001A000C9F70E943A150C94FA1F0C940000FC0148
:1001B00010A611A612A613A6DC01AE59BF4F1196C8
:1001C0001C921E92129611961C921E92129681E01B
:1001D00090E011969C938E9316971D921C9212AAF2
:1001E00013AA14AA15AA8DEC9CECACE4BEE384A778
:1001F00095A7A6A7B7A7EA5BFF4F168217821086BE
:10020000118680E090E0A0E0B0E480839183A28337
:10021000B38308954F925F926F927F928F929F92D5
:10022000AF92BF92CF92DF92EF92FF920F931F9304
:10023000CF93DF93EC016A8D7B8D072E000C880B2A
:10024000990B0E94851B20E030E040E05FE30E94B4
:10025000791C6B017C01688D798D072E000C880B51
:10026000990B0E94851B20E030E040E05FE30E9494
:10027000791C4B015C018E010A5B1F4F6E897F89DF
:10028000072E000C880B990B0E94851B20E030E0A4
:1002900040E05FE30E94791CF801608371838283F0
:1002A000938384829582A682B782C086D186E286B5
:1002B000F3860E946C194B015C010E946C192B01A2
:1002C0003C010E946C19045F1F4FC12CD12CE12C02
:1002D00020E8F22EA70196010E94C3190E94851BF7
:1002E00020E030E040EC50E40E94791C20E030E057
:1002F00040E050E30E94791C20E030E040E850E408
:100300000E94651AF8016083718382839383C3011D
:10031000B201A70196010E94C3190E94851B20E02B
:1003200030E040EC50E40E94791C20E030E040E0F6
:1003300050E30E94791C20E030E040E850E40E9445
:10034000651AF8016483758386839783C501B401B8
:10035000A70196010E94C3190E94851B20E030E08E
:1003600040EC50E40E94791C20E030E040E050E393
:100370000E94791C20E030E040E850E40E94651AB9
:10038000F80160877187828793871AAA1BAA1CAA23
:100390001DAA80E090E0A0E2B1E48CA79DA7AEA7E3
:1003A000BFA7DF91CF911F910F91FF90EF90DF904A
:1003B000CF90BF90AF909F908F907F906F905F9005
:1003C0004F900895CF92DF92EF92FF92CF93DF93F9
:1003D000EC010E946C19C12CD12CE12C20E8F22EEA
:1003E000A70196010E94C3190E94851B2FE832ECD9
:1003F00045E75EE30E94791C20E030E040E050E3F6
:100400000E94791C2AE037ED43E25CE30E94651A02
:100410006C8F7D8F8E8F9F8F0E946C19A701960124
:100420000E94C3190E94851B2FE832EC45E75EE36A
:100430000E94791C20E030E040E050E30E94791CEB
:100440002AE037ED43E25CE30E94651A68A379A3D2
:100450008AA39BA30E946C19A70196010E94C3194D
:100460000E94851B2FE832EC45E75EE30E94791C71
:1004700020E030E040E050E30E94791C2AE037EDB4
:1004800043E25CE30E94651A6CA37DA38EA39FA345
:10049000DF91CF91FF90EF90DF90CF900895CF92B2
:1004A000DF92EF92FF920F931F93CF93DF93EC01B4
:1004B0000E946C191AAA1BAA1CAA1DAAC12CD12C15
:1004C000E12C20E8F22EA70196010E94C3190E9498
:1004D000851B2AE939E949E15EE30E94791C20E0A5
:1004E00030E040E050E30E94791C2DEC3CEC4CE401
:1004F0005DE30E94651A6CA77DA78EA79FA70E9447
:100500006C198E010A5B1F4FF80116821782108644
:100510001186A70196010E94C3190E94851B20E045
:1005200030E040E450E40E94791C20E030E040E0FC
:1005300050E30E94791C20E030E040E85FE30E9435
:10054000651AF8016083718382839383C05ADF4FF9
:1005500088819981892B79F40E946C1925E030E01B
:1005600040E050E00E94C319DC01CB010396A11DBD
:10057000B11D99838883DF91CF911F910F91FF90D7
:10058000EF90DF90CF900895CF92DF92EF92FF929D
:100590000F931F93CF93DF93EC010E946C191AAA5B
:1005A0001BAA1CAA1DAAC12CD12CE12C20E8F22EDA
:1005B000A70196010E94C3190E94851B2DEC3CECFB
:1005C0004CE45EE30E94791C20E030E040E050E320
:1005D0000E94791C2DEC3CEC4CE45DE30E94651A12
:1005E0006CA77DA78EA79FA70E946C198E010A5B3E
:1005F0001F4FF8011682178210861186A7019601F7
:100600000E94C3190E94851B20E030E040E450E4C2
:100610000E94791C20E030E040E050E30E94791C09
:1006200020E030E040E85FE30E94651AF801608353
:100630007183828393830E946C19065E1F4FA7010A
:1006400096010E94C3190E94851B20E030E040E61D
:1006500050E40E94791C20E030E040E050E30E942A
:10066000791C20E030E040E05FE30E94651AF80169
:100670006083718382839383CC59DF4F8881998112
:10068000892B79F40E946C1926E030E040E050E0BC
:100690000E94C319DC01CB010496A11DB11D9983F1
:1006A0008883DF91CF911F910F91FF90EF90DF90A2
:1006B000CF900895CF92DF92EF92FF92CF93DF9386
:1006C000EC010E946C19C12CD12CE12C20E8F22EF7
:1006D000A70196010E94C3190E94851B20E030E00B
:1006E00040E450E40E94791C20E030E040E050E318
:1006F0000E94791C20E030E040E450E40E94641A3B
:100700006CA77DA78EA79FA70E946C19A7019601D1
:100710000E94C3190E94851B20E030E040E450E4B1
:100720000E94791C20E030E040E050E30E94791CF8
:1007300020E030E0A9010E94651A68AB79AB8AAB72
:100740009BAB0E946C19A70196010E94C3190E94DD
:10075000851B20E030E040E450E40E94791C20E05A
:1007600030E040E050E30E94791C20E030E040E4BB
:1007700050E40E94641A6CAB7DAB8EAB9FAB0E94C1
:100780006C19A70196010E94C3190E94851B20E0E5
:1007900030E040E450E40E94791C20E030E040E08A
:1007A00050E30E94791C20E030E0A9010E94651A04
:1007B00068AF79AF8AAF9BAFDF91CF91FF90EF9099
:1007C000DF90CF9008952F923F924F925F926F9259
:1007D0007F928F929F92AF92BF92CF92DF92EF92D1
:1007E000FF920F931F93CF93DF93CDB7DEB76E9732
:1007F0000FB6F894DEBF0FBECDBF8C016A017B013E
:100800002BED3FE049EC50E4C701B6010E94791C92
:100810009B01AC01D80198966D917D918D919C9131
:100820009B970E94651AF80160A771A782A793A7FA
:1008300020E030E040EA50E4C701B6010E94DB1A34
:100840000E94BB13C8018E599F4F9E878D87DC0184
:100850002D903C90F801EC59FF4FF88BEF870496F0
:100860009E8F8D8FAF85B8898D919C912816390602
:100870000CF04FC1612C712CC101032C000CAA0B90
:10088000BB0B898F9A8FAB8FBC8F92E1929D200119
:10089000939D500C1124AD8DBE8D8D919C91681649
:1008A00079060CF032C1698D7A8D8B8D9C8D0E94FA
:1008B000851B698B7A8B8B8B9C8BF801608D718D7E
:1008C00061507109072E000C880B990B0E94851B43
:1008D0009B01AC0169897A898B899C890E94DB1A0A
:1008E0002BED3FE049EC50E40E94791C20E030E021
:1008F000A9010E94651AD80198962D913D914D91BC
:100900005C919B970E94651A6B017C01B301072CD7
:10091000000C880B990B0E94851B2BED3FE049E4EE
:1009200050E40E94791C20E030E040E752E40E944D
:10093000DB1A9B01AC01C701B6010E94651A6B016D
:100940007C010E94361D4B015C01C701B6010E946B
:10095000D61A6D8B7E8B8F8B988FF801668977897D
:1009600061507109072E000C880B990B0E94851BA2
:100970006B017C012DEC3CEC4CE85FE3C501B4015C
:100980000E94651A20E030E040E05FE30E94791C9D
:100990009B01AC01C701B6010E94791C20E030E048
:1009A000A9010E94651A6B017C01D8015C966D93C8
:1009B0007D938D939C935F975A966D917C915B97F5
:1009C00061507109072E000C880B990B0E94851B42
:1009D0004B015C012DEC3CEC4CE85FE36D897E89BA
:1009E0008F89988D0E94651A20E030E040E05FE337
:1009F0000E94791C9B01AC01C501B4010E94791CC5
:100A000020E030E0A9010E94651A4B015C01F80169
:100A100064A375A386A397A32DEC3CEC4CE45DE3A3
:100A2000C701B6010E94791C6B017C012DEC3CECE6
:100A30004CE45EE369897A898B899C890E94791CE0
:100A40009B01AC01C701B6010E94651A6B017C01D4
:100A50002DEC3CEC4CE45DE3C501B4010E94791C33
:100A60009B01AC01C701B6010E94651A0E94CA121F
:100A70002F83388749875A876B877C87D80194965C
:100A80006D917D918D919C9197970E944D1B6B016B
:100A90007C01F801648D758D868D978D0E944D1BAC
:100AA00026E0FE013796DE01119601900D922A95FF
:100AB000E1F72091460430914704F6E0FC9DD00117
:100AC000FD9DB00D1124ECE6E69FA001E79F500DBF
:100AD0001124A40FB51FA40DB51D84E491E0289F37
:100AE000A001299F500D389F500D1124A40FB51F50
:100AF000A454BE4FFE01319686E001900D928A9576
:100B0000E1F79FEF691A790AC6CEAFEF2A1A3A0ABF
:100B1000A9CEC8018C960E94720D892B09F467C07A
:100B20007801B0E6EB0EF11CF70180819181892BF1
:100B300091F4AF85B8898D919C911197F801208D22
:100B4000318D8217930714F4019603C081E090E081
:100B5000D7018D939C93F70180819181019789F44E
:100B6000F801EA59FF4F808191818431910524F485
:100B700001969183808305C082E090E0D7018D9338
:100B80009C93F70180819181029771F4C8018A5B7F
:100B90009F4F0E94720D892B39F0D7018D919C9146
:100BA000119701968D939C93F70180819181039712
:100BB00091F4AD85BE858D919C911197F801208DA2
:100BC000318D8217930714F4019603C084E090E0FE
:100BD000D7018D939C93F70180819181049739F41B
:100BE000D80112961D921D921D921C9215976E9619
:100BF0000FB6F894DEBF0FBECDBFDF91CF911F912E
:100C00000F91FF90EF90DF90CF90BF90AF909F90AB
:100C10008F907F906F905F904F903F902F900895AE
:100C20002F923F924F925F926F927F928F929F92FC
:100C3000AF92BF92CF92DF92EF92FF920F931F93EA
:100C4000CF93DF93CDB7DEB764970FB6F894DEBFCE
:100C50000FBECDBF8C016A017B012CE739ED40E26C
:100C60005FE3C701B6010E94791CD80198962D91C7
:100C70003D914D915C919B970E94651AF80160A788
:100C800071A782A793A70E94361D20E030E040E4C0
:100C900050E40E94DB1AA70196010E94791C0E9471
:100CA000BB13E12CF12CD80156968D919C9157974E
:100CB000E816F9060CF0ADC0C12CD12CC7010F2CE1
:100CC000000CAA0BBB0B898B9A8BAB8BBC8B9CE665
:100CD0009E9D40019F9D900C1124D80158968D91A6
:100CE0009C915997C816D9060CF08FC0A12CB12C35
:100CF000C6010D2C000CAA0BBB0B8D879E87AF87FE
:100D0000B88B92E19C9D10019D9D300C1124D8015F
:100D10005A968D919C915B97A816B9060CF071C0FC
:100D200069897A898B899C890E94851BF801248DA9
:100D3000358D468D578D0E94791C2B013C016D85A8
:100D40007E858F8598890E94851BD80190962D916C
:100D50003D914D915C9193970E94791C9B01AC0150
:100D6000C301B2010E94651A2B013C01B5010B2C95
:100D7000000C880B990B0E94851BF80124A135A15A
:100D800046A157A10E94791C9B01AC01C301B2018D
:100D90000E94651A0E94CA122F83388749875A8792
:100DA0006B877C8786E0FE013796DE011196019005
:100DB0000D928A95E1F72091460430914704F6E0C0
:100DC000FA9DD001FB9DB00D1124A80DB91DA20DF7
:100DD000B31D44E451E0249FC001259F900D349F32
:100DE000900D1124A80FB91FA454BE4FFE013196D7
:100DF00086E001900D928A95E1F75FEFA51AB50A9A
:100E000086CF8FEFC81AD80A68CF9FEFE91AF90A80
:100E10004ACFD8019896CD90DD90ED90FC909B97AD
:100E20002BED3FE049EC50E4C701B6010E94DB1A0C
:100E300020E030E040E85FE30E94741C87FD11C0B1
:100E40002BED3FE049EC50E4C701B6010E94641A63
:100E5000F80160A771A782A793A712821382148258
:100E6000158264960FB6F894DEBF0FBECDBFDF913A
:100E7000CF911F910F91FF90EF90DF90CF90BF9097
:100E8000AF909F908F907F906F905F904F903F902A
:100E90002F9008957F928F929F92AF92BF92CF92A0
:100EA000DF92EF92FF920F931F93CF93DF93CDB713
:100EB000DEB7A4970FB6F894DEBF0FBECDBF8C018E
:100EC000CB01BA0120E030E040EA50E40E94DB1A96
:100ED0000E94BB13C8018C960E94720D892B09F4E5
:100EE0003CC140E050E086E0982E9CE6792E22E15D
:100EF000822E34E4E32EFF24F39480919D0490919C
:100F00009E04481759070CF0A8C080E090E0749E3A
:100F10006001759ED00C11242091A1043091A2048F
:100F2000821793070CF096C021E030E0989EB00144
:100F3000999E700D11246C0D7D1DA0909F04B090A2
:100F4000A0042A153B050CF052C0A0914404B091B6
:100F50004504829E5001839EB00C1124A60EB71E3C
:100F6000AE9DF001AF9DF00DBE9DF00D1124EA0D78
:100F7000FB1DE454FE4FDE011D96B92C01900D922D
:100F8000BA94E1F7FE013D96DE015996B92C019025
:100F90000D92BA94E1F7FE017996DE015396B92CD1
:100FA00001900D92BA94E1F7A0904604B0904704E6
:100FB000F90131978E9ED0018F9EB00D1124FB0157
:100FC000EA0FFB1FAE9CD001AF9CB00DBE9CB00DD4
:100FD0001124AE0FBF1FA454BE4FFE017396B92C4F
:100FE00001900D92BA94E1F72F5F3F4FA6CF26E014
:100FF000E5ECF6E0DE01179601900D922A95E1F7F7
:10100000609146047091470421E0A21AB108989EAD
:10101000D001999EB00D1124AC0DBD1D8A9C90018C
:101020008B9C300D11242A0F3B1F6E9DF0016F9D8C
:10103000F00D7E9DF00D1124D901AE0FBF1FA454F9
:10104000BE4FFE013796292D01900D922A95E1F7AA
:10105000019662CF4F5F5F4F50CF0E946C1922E024
:1010600030E040E050E00E94C3196130710509F0A2
:1010700076C0D8015696CD90DC9057970D2C000C79
:10108000EE08FF08C114D104E104F10441F00E940C
:101090006C19A70196010E94C3196B017C015601CE
:1010A000F801C28CD38C0D2C000CEE08FF08C11483
:1010B000D104E104F10441F00E946C19A7019601EA
:1010C0000E94C3196B017C0160E070E0CB010E94BB
:1010D000CA122F8F38A349A35AA36BA37CA3D801AC
:1010E00058966D917C9159976150710986E0FE0187
:1010F0007F96DE01119601900D928A95E1F740915D
:1011000046045091470426E02C9DD0012D9DB00D42
:1011100011243CE63A9DC0013B9D900D1124A80F7F
:10112000B91F32E1369FC001379F900D1124A80FDF
:10113000B91F64E471E0469FC001479F900D569F20
:10114000900D1124A80FB91FA454BE4FFE01319673
:1011500001900D922A95E1F702C00E940014C80187
:101160008A5B9F4F0E94720D892B59F1F801E05A5A
:10117000FF4F80819181019791838083892B31F486
:10118000F80112821382148215821BC0D801ED91DE
:10119000FC910680F781E02DC801A4960FB6F89463
:1011A000DEBF0FBECDBFDF91CF911F910F91FF909A
:1011B000EF90DF90CF90BF90AF909F908F907F90F7
:1011C0000994A4960FB6F894DEBF0FBECDBFDF9191
:1011D000CF911F910F91FF90EF90DF90CF90BF9034
:1011E000AF909F908F907F9008952F923F924F9253
:1011F0005F926F927F928F929F92AF92BF92CF92A7
:10120000DF92EF92FF920F931F93CF93DF93CDB7AF
:10121000DEB760970FB6F894DEBF0FBECDBF1C01DE
:101220006A017B0120E030E0A901C701B6010E94FC
:10123000741C18160CF0D4C0A7019601F101E05AF5
:10124000FF4F60817181828193810E94DB1A0E942D
:101250004D1B072E000C880B990B0E94851B9B01D0
:10126000AC0160E070E080E89FE30E94DB1A9B0124
:10127000AC0164EA70E78DE799E30E94E61C6B011C
:101280007C01A12CB12C80919D0490919E04A81604
:10129000B9060CF0A7C0812C912C4CE64A9D900118
:1012A0004B9D300D112438872F8380919F0490919E
:1012B000A004881699060CF08FC0612C712C52E1A5
:1012C000589D2001599D500C11248091A1049091AA
:1012D000A204681679060CF07BC02091440430917A
:1012E000450466E0669D8001679D100D1124EF8125
:1012F000F885E00FF11FE40DF51DA4E4B1E02A9F8D
:10130000C0012B9F900D3A9F900D1124E80FF91FFB
:10131000E454FE4FDE01119686E001900D928A950D
:10132000E1F76B817C8180E090E00E94831BA70144
:1013300096010E94791C0E94541B69877A878B87CB
:101340009C876D817E8180E090E00E94831BA701D5
:1013500096010E94791C0E94541B6D877E878F879F
:10136000988B2091460430914704040D151DE4E448
:10137000F1E02E9FC0012F9F900D3E9F900D1124F4
:101380002F813885820F931F080F191F04541E4F99
:1013900069817A8180E090E00E94831BA701960119
:1013A0000E94791C0E94541BD80111967C936E9365
:1013B000E985FA851396FC93EE9312972D853E8569
:1013C00015963C932E9314973FEF631A730A7DCFC3
:1013D0004FEF841A940A69CF5FEFA51AB50A53CF6D
:1013E0000E940014C1018C960E94720D892B09F491
:1013F00093C00E946C19C12C20E1D22EE12CF12C5B
:10140000A70196010E94C3192B013C010E946C198F
:10141000A70196010E94C3194B015C010E946C193F
:10142000A70196010E94C31969877A878B879C87D9
:10143000D1015A96CD90DC905B970D2C000CEE08F4
:10144000FF08C114D104E104F10441F00E946C19B9
:10145000A70196010E94C3196B017C018601F1016D
:10146000C08CD18C0D2C000CEE08FF08C114D104E7
:10147000E104F10441F00E946C19A70196010E9459
:10148000C3196B017C01D886CF82D1015696CD90CD
:10149000DC9057970D2C000CEE08FF08C114D10406
:1014A000E104F10441F00E946C19A70196010E9429
:1014B000C3196B017C01409146045091470486E0BA
:1014C000809FF001819FF00D112422E16F817885CA
:1014D000269FC001279F900D1124E80FF91F84E477
:1014E00091E0489F9001499F300D589F300D112485
:1014F0004CE64C9DC0014D9D900D1124820F931F11
:10150000E80FF91FE454FE4F518240829382828299
:1015100089859A8595838483C1018A5B9F4F0E9448
:10152000720D892B89F1F101EC59FF4F8081918176
:10153000019791838083D101892B39F412961D92F2
:101540001D921D921C9215971FC0ED91FC91068073
:10155000F781E02DC10160960FB6F894DEBF0FBE93
:10156000CDBFDF91CF911F910F91FF90EF90DF9052
:10157000CF90BF90AF909F908F907F906F905F9033
:101580004F903F902F90099460960FB6F894DEBF6D
:101590000FBECDBFDF91CF911F910F91FF90EF90C4
:1015A000DF90CF90BF90AF909F908F907F906F9083
:1015B0005F904F903F902F9008952F923F924F92BF
:1015C0005F926F927F928F929F92AF92BF92CF92D3
:1015D000DF92EF92FF920F931F93CF93DF93CDB7DC
:1015E000DEB76A970FB6F894DEBF0FBECDBF1C0101
:1015F0006A017B012BED3FE049E450E4C701B601ED
:101600000E94791C9B01AC01F10160A571A582A526
:1016100093A50E94651AF10160A771A782A793A7FD
:10162000C701B601905820E030E040EA50E40E9443
:10163000DB1A0E94BB131C8A1B8AF101668877881B
:101640002B893C89261537050CF0F6C0C4A4D5A417
:10165000E6A4F7A4B901330F880B990B0E94851BF0
:101660004B015C01B30161507109072E000C880B1E
:10167000990B0E94851B9B01AC01C501B4010E941E
:10168000DB1A2B013C01A7019601F10160A971A9A8
:1016900082A993A90E94641A9B01AC01C301B20103
:1016A0000E94791CA70196010E94651AF101648FBE
:1016B000758F868F978F1E8A1D8AF101628C738CBD
:1016C0002D893E89261537050CF0B0C0C4A8D5A8D1
:1016D000E6A8F7A8B901330F880B990B0E94851B68
:1016E0006F8B788F898F9A8FB30161507109072EA4
:1016F000000C880B990B0E94851B9B01AC016F8924
:10170000788D898D9A8D0E94DB1A2B013C01A701EF
:101710009601F10160AD71AD82AD93AD0E94641A86
:101720009B01AC01C301B2010E94791CA701960183
:101730000E94651A6B017C01F10164A375A386A365
:1017400097A3648D758D868D978D9B01AC010E944A
:10175000791C2B013C01A7019601C701B6010E942B
:10176000791C9B01AC01C301B2010E94651A0E9461
:10177000441DF10120A531A542A553A50E94651A7B
:101780000E94361D2B013C01F101608D718D61506D
:101790007109072E000C880B990B0E94851B6B01A9
:1017A0007C0120E030E040E85FEBC301B2010E9421
:1017B000641A20E030E040E05FE30E94791C9B0166
:1017C000AC01C701B6010E94791C20E030E0A901FC
:1017D0000E94651AF10160A371A382A393A3898279
:1017E0009A82AB82BC826D837E838F8398872F8998
:1017F000388D498D5A8D29873A874B875C872DEC28
:101800003CEC4CEC5DE30E94791C0E94CA12E12C76
:10181000F12C00E210E4CE0101960E9467104D8980
:101820005E894F5F5F4F5E8B4D8B47CF8B899C8965
:1018300001969C8B8B8B01CFF101C0A4D1A4E2A4B3
:10184000F3A424EE3BEC46E152E4C701B6010E944A
:10185000DB1A20E030E040E85FE30E94741C87FD63
:1018600011C024EE3BEC46E152E4C701B6010E94F0
:10187000641AF10160A771A782A793A7128213824D
:10188000148215826A960FB6F894DEBF0FBECDBFE4
:10189000DF91CF911F910F91FF90EF90DF90CF904C
:1018A000BF90AF909F908F907F906F905F904F9080
:1018B0003F902F90089582559D4F2DEF2603F00104
:1018C000279FF00D1124E35AFF4FF695E795E80F97
:1018D000F91F60FF0DC0CA0124E0969587952A95EF
:1018E000E1F7808381818F704295407F482B04C04F
:1018F0008081807F852B8083418308952F923F9242
:101900004F925F926F927F928F929F92AF92BF920F
:10191000CF92DF92EF92FF920F931F93CF93DF93BB
:1019200000D000D0CDB7DEB79C838B834C0141E65D
:10193000841A4DEF940AE12CF12C88579D4F9A831D
:10194000898382E1869F1001879F300C11248401D6
:10195000C12CD12C5CE65E9D20015F9D500C1124B2
:10196000E981FA812081318146E04C9DF0014D9D55
:10197000F00D1124E20DF31D44E451E0249FC00159
:10198000259F900D349F900D1124840D951DE80F17
:10199000F91F8B819C81E80FF91FA280B3806480BE
:1019A000758040815181F801608170E00E945B0C7C
:1019B000F801618170E0A5018B819C810E945B0C24
:1019C000F801628170E0A3018B819C810E945B0C15
:1019D000FFEFCF1ADF0A0950110943E0C416D10402
:1019E00009F0BECF5FEFE51AF50A83E0880E911C7F
:1019F00093E0E916F10409F0AACF0F900F900F9031
:101A00000F90DF91CF911F910F91FF90EF90DF909A
:101A1000CF90BF90AF909F908F907F906F905F908E
:101A20004F903F902F9008950E94F51F0C946C1FCB
:101A30000C946C1F0C946C1F0C946C1F0C946C1FFA
:101A40000C946C1F1F920F920FB60F9211242F93BC
:101A50003F938F939F93AF93BF9380918101909118
:101A60008201A0918301B09184013091800123E033
:101A7000230F2D3720F40196A11DB11D05C026E8C6
:101A8000230F0296A11DB11D209380018093810137
:101A900090938201A0938301B0938401809185018A
:101AA00090918601A0918701B09188010196A11DB6
:101AB000B11D8093850190938601A0938701B09317
:101AC0008801BF91AF919F918F913F912F910F907E
:101AD0000FBE0F901F9018950895089508950895CA
:101AE000089508958F929F92AF92BF92CF92DF9206
:101AF000EF92FF92CF93DF93EC010E9415156E8752
:101B00007F87888B998BCE80DF80E884F984CD280D
:101B1000CE28CF2851F41D821C826E837F83888754
:101B200099876A877B878C879D87CA84DB84EC844E
:101B3000FD849B01AC012C193D094E095F092A8BDC
:101B40003B8B4C8B5D8BCE80DF80E884F9844B012E
:101B50005C018C189D08AE08BF088E8A9F8AA88EEB
:101B6000B98E6A877B878C879D87C880D980EA80F9
:101B7000FB8020E030E0A901C701B6010E94741C7F
:101B80001816FCF4C501B4010E94831B4B015C01D3
:101B900020E034E244E759E4C701B6010E94791C11
:101BA0009B01AC01C501B4010E94DB1A0E94541BC9
:101BB0002C813D812617370720F47D836C83CB0170
:101BC00002C080E090E0DF91CF91FF90EF90DF9036
:101BD000CF90BF90AF909F908F9008952F923F929B
:101BE0004F925F926F927F928F929F92AF92BF922D
:101BF000CF92DF92EF92FF920F931F93CF93DF93D9
:101C0000CDB7DEB7AC970FB6F894DEBF0FBECDBF31
:101C10001C014A015B0120E030E040EA50E4C501CC
:101C2000B4010E94DB1A0E94BB1360E070E0CB019C
:101C30000E94CA12C1018A5B9F4F98878F8313E36A
:101C4000E12EFE2C03EB1FE30E946710D1015A9690
:101C50000D90BC91A02DBEA3ADA3F101008CF18D20
:101C6000E02DF8A7EFA3D10156960D911C9157973F
:101C70000E946C1969A77AA78BA79CA7F101EE5A5D
:101C8000FF4F80859185A285B385898F9A8FAB8F11
:101C9000BC8F84819581A681B7818D8F9E8FAF8FF8
:101CA000B8A380819181A281B38189A39AA3ABA3B8
:101CB000BCA3AF81B88518968D919D910D90BC9174
:101CC000A02D89879A87AB87BC87298D3A8D4B8D4C
:101CD0005C8DC501B4010E94791C29853A854B852C
:101CE0005C850E94651A6D877E878F87988BAF8190
:101CF000B88514968D919D910D90BC91A02D898BE6
:101D00009A8BAB8BBC8B2D8D3E8D4F8D58A1C50111
:101D1000B4010E94791C29893A894B895C890E9407
:101D2000651A2B013C01AF81B8858D919D910D9075
:101D3000BC91A02D8D8B9E8BAF8BB88F29A13AA122
:101D40004BA15CA1C501B4010E94791C2D893E897B
:101D50004F89588D0E94651A6B017C01B801615052
:101D60007109072E000C880B990B0E94851BA70197
:101D700096010E94D11A87FD09C020E030E0A90138
:101D8000C701B6010E94D11A87FF0BC089A19AA191
:101D9000ABA1BCA1B058EF81F88584879587A68751
:101DA000B7876FA178A561507109072E000C880BC9
:101DB000990B0E94851B6B017C01A30192010E947B
:101DC000D11A87FD09C020E030E0A901C301B201AA
:101DD0000E94D11A87FF0CC0F101EA5BFF4F8D8D85
:101DE0009E8DAF8DB8A1B058808B918BA28BB38B99
:101DF0006DA17EA161507109072E000C880B990B13
:101E00000E94851B2D853E854F8558890E94D11AD9
:101E100081010A5B1F4F87FD0BC020E030E0A90164
:101E20006D857E858F8598890E94D11A87FF0AC0AB
:101E3000898D9A8DAB8DBC8DB058F801848B958BB4
:101E4000A68BB78BA3019201C701B6010E94D11ADC
:101E500087FF26C069A57AA58BA59CA520E030E068
:101E600040E050E80E94C3190E94851B20E030E04A
:101E700040E751E40E94791C20E030E040E050E36C
:101E80000E94791C20E030E040EA50E40E94651A8C
:101E9000DC01CB01B058F801808B918BA28BB38B06
:101EA000C1018E5A9F4F98878F83DC0118962D9120
:101EB0003D914D915C911B97C501B4010E94791C25
:101EC00029853A854B855C850E94651A2B013C016A
:101ED000EF81F8852481358146815781C501B401A0
:101EE0000E94791C29893A894B895C890E94651A6C
:101EF0006B017C01AF81B8852D913D914D915C9135
:101F0000C501B4010E94791C2D893E894F89588DE5
:101F10000E94651AF8016083718382839383C4826F
:101F2000D582E682F7824086518662867386C10139
:101F30008C960E94720D892B39F0D10112961D9258
:101F40001D921D921C921597AC960FB6F894DEBFA9
:101F50000FBECDBFDF91CF911F910F91FF90EF90FA
:101F6000DF90CF90BF90AF909F908F907F906F90B9
:101F70005F904F903F902F9008951F920F920FB651
:101F80000F921124EF92FF920F931F932F933F9381
:101F90004F935F936F937F938F939F93AF93BF9371
:101FA000CF93DF93EF93FF93C0918901D0918A0182
:101FB0002A9A299A7E0120E2E21A2DEFF20AF7010D
:101FC0008081809588B929982A988E0102521D4FE8
:101FD000F80180818F5F863011F0808302C0F801A4
:101FE0001082F8014081242F30E0FE01E20FF31F40
:101FF000E855FD4F8081FE01E152FD4F80832F5F48
:102000003F4FC90166E070E00E94361AFE01E80FFA
:10201000F91FE855FD4F8081F70180834530B1F508
:10202000DE01A457BD4F8C91882341F1FE01E85792
:10203000FD4F2081318181E090E0AC01421B530BC8
:1020400051834083329620813181821B930B91838F
:1020500080832081318184E491E0289FF001299FD1
:10206000F00D389FF00D1124AF014C0F5D1FFA01E8
:102070009C01119221503040E1F71C9260E070E029
:10208000CE010E947E0CC255DD4F02C0B901F8CFCF
:1020900089918EBD0DB407FEFDCFC017D107C1F7E2
:1020A000FF91EF91DF91CF91BF91AF919F918F9170
:1020B0007F916F915F914F913F912F911F910F9160
:1020C000FF90EF900F900FBE0F901F9018952F92DA
:1020D0003F924F925F926F927F928F929F92AF92B8
:1020E000BF92CF92DF92EF92FF920F931F93CF9305
:1020F000DF93CDB7DEB7AC970FB6F894DEBF0FBE57
:10210000CDBF9CA38BA32F83388749875A876B87C2
:102110007C87E9A6FAA60BA71CA7DC012D913D91AF
:102120004D915C912F8B388F498F5A8F20E030E092
:1021300040E85FE36F89788D898D9A8D0E94641ADB
:102140000E944D1B8B01B801012E000C880B990BCE
:102150000E94851B6D877E878F87988B20E030E0FB
:1021600040E85FE36F89788D898D9A8D0E94651AAA
:102170009B01AC016D857E858F8598890E94D11A5F
:1021800018160CF4EEC1ABA1BCA114962D913D9193
:102190004D915C9117972B8F3C8F4D8F5E8F20E078
:1021A00030E040E85FE36B8D7C8D8D8D9E8D0E94CD
:1021B000641A0E944D1B7A8B698B2CE6209F70015C
:1021C000219FF00C1124F8A6EFA2E988FA88B70144
:1021D0000F2C000C880B990B0E94851B6B8B7C8B42
:1021E0008D8B9E8B20E030E040E85FE36B8D7C8D33
:1021F0008D8D9E8D0E94651A9B01AC016B897C8937
:102200008D899E890E94D11A18160CF4A1C0ABA129
:10221000BCA118962D913D914D915C911B972F8FEC
:1022200038A349A35AA320E030E040E85FE36F8D74
:1022300078A189A19AA10E94641A0E944D1B1B01DA
:1022400022E12E9DF0012F9DF00D1124FEA3EDA3A0
:10225000B101032C000C880B990B0E94851B6B01AC
:102260007C0120E030E040E85FE36F8D78A189A138
:102270009AA10E94651A9B01AC01C701B6010E9498
:10228000D11A18160CF45DC060919D0470919E04E3
:10229000072E000C880B990B0E94851B9B01AC013B
:1022A0006D857E858F8598890E94D11A87FF45C0EC
:1022B00020E030E0A9016D857E858F8598890E9498
:1022C000741C87FD3AC060919F047091A004072E92
:1022D000000C880B990B0E94851B9B01AC016B893C
:1022E0007C898D899E890E94D11A87FF26C020E0B3
:1022F00030E0A9016B897C898D899E890E94741CBC
:1023000087FD1BC06091A1047091A204072E000CF0
:10231000880B990B0E94851B9B01AC01C701B6017C
:102320000E94D11A87FF09C020E030E0A901C7014F
:10233000B6010E94741C87FF0EC03FEF231A330AB8
:1023400087CF49895A894F5F5F4F5A8B498B3DCF61
:102350000F5F1F4FF8CEA70196016F8D78A189A15D
:102360009AA10E94641A6B017C012B893C894D89DA
:102370005E896B8D7C8D8D8D9E8D0E94641A4B01C4
:102380005C012D853E854F8558896F89788D898DB3
:102390009A8D0E94641A9B01AC010E94791C2B014A
:1023A0003C01A5019401C501B4010E94791C9B0167
:1023B000AC01C301B2010E94651A4B015C01A70187
:1023C0009601C701B6010E94791C9B01AC01C501B1
:1023D000B4010E94651A0E94441D9B01AC0169A5CD
:1023E0007AA58BA59CA50E94791C6B017C019B01A1
:1023F000AC010E94791CA70196010E94791CA701DB
:1024000096010E94791CA70196010E94791C20E088
:1024100030E040E85FE30E94651A9B01AC0160E098
:1024200070E080E89FE30E94DB1A6B017C016B8502
:102430007C8580E090E00E94831BA70196010E94AA
:10244000791C0E94541B4B015C0169857A8580E0F0
:1024500090E00E94831BA70196010E94791C0E94B4
:10246000541B2B013C016F81788580E090E00E9435
:10247000831BA70196010E94791C0E94541B209186
:1024800046043091470456E0529DF001539DF00DF3
:102490001124EFA0F8A4EE0DFF1DEDA0FEA0EE0D9F
:1024A000FF1DA4E4B1E02A9FA0012B9F500D3A9F8D
:1024B000500D1124E40FF51FE454FE4FDE01119678
:1024C00026E001900D922A95E1F72B813C81420E86
:1024D000531E4114B0E15B0620F044244A942FE0DF
:1024E000522E2D813E81D901A80DB91DA115E0E123
:1024F000BE0710F0AFEFBFE0E0914604F091470453
:1025000086E0E82EE29C9001E39C300D1124EDA0C2
:10251000FEA02E0D3F1D94E4E92EFF24F394EE9DC2
:10252000A001EF9D500DFE9D500D1124EFA0F8A4C9
:102530004E0D5F1D240F351FF901E454FE4F298114
:102540003A81A901460F571F411520E1520710F0AB
:102550004FEF5FE05183408353824282B583A4836F
:10256000ECCEAC960FB6F894DEBF0FBECDBFDF91B8
:10257000CF911F910F91FF90EF90DF90CF90BF9080
:10258000AF909F908F907F906F905F904F903F9013
:102590002F9008952F923F924F925F926F927F9269
:1025A0008F929F92AF92BF92CF92DF92EF92FF9263
:1025B0000F931F93CF93DF9300D000D000D0CDB7FF
:1025C000DEB720919001309191014091920150919C
:1025D00093010E94651A6B017C010E944D1B072E1E
:1025E000000C880B990B0E94851B9B01AC01C70155
:1025F000B6010E94641A4B015C0120E030E0A901A1
:102600000E94D11A87FF0AC020E030E040E85FE373
:10261000C501B4010E94651A4B015C01E09096016E
:10262000F09097010091940110919501E09E600156
:10263000E19ED00CF09ED00C1124B6010D2C000CA4
:10264000880B990B0E94851BA50194010E94791C9F
:102650000E944D1BCB01B6010E94361AB8010E94A0
:10266000361A2C0126E0269FF001279FF00D112439
:10267000E856FE4FC080D18082809380A480B580D0
:10268000CB010196B7010E94361A289FA001299F0D
:10269000500D1124CA0188569E4F1C01612C712CCB
:1026A000780100E010E0FC0122813381C901A0E043
:1026B000B0E09C01AD012819390941095109C30154
:1026C000B2010E94261AA80197010E94C319820E26
:1026D000931EF10124813581C901A0E0B0E09C0185
:1026E000AD012A193B0941095109C301B2010E94F8
:1026F000261AA80197010E94C319A20EB31EF10168
:1027000020813181C901A0E0B0E09C01AD012C190C
:102710003D0941095109C301B2010E94261AA801CD
:1027200097010E94C3192C0D3D1D3A8329839C8279
:102730008B82BE82AD823A81482D5C816A2D7E817A
:1027400080E090E026960FB6F894DEBF0FBECDBFB6
:10275000DF91CF911F910F91FF90EF90DF90CF907D
:10276000BF90AF909F908F907F906F905F904F90B1
:102770003F902F900895CF92DF92EF92FF92209199
:1027800090013091910140919201509193010E94EA
:10279000651A6B017C010E944D1B072E000C880BF3
:1027A000990B0E94851B9B01AC01C701B6010E94D9
:1027B000641A6B017C0120E030E0A9010E94D11A6B
:1027C00087FD09C0C0929001D0929101E0929201E0
:1027D000F092930110C020E030E040E85FE3C701D1
:1027E000B6010E94651A60939001709391018093E5
:1027F000920190939301FF90EF90DF90CF90089516
:102800007F928F929F92AF92BF92CF92DF92EF9280
:10281000FF920F931F93CF93DF93CDB7DEB76297ED
:102820000FB6F894DEBF0FBECDBF40E050E026E00B
:102830008CE6782E32E194E4E92EFF24F394809123
:102840009D0490919E04481759070CF06EC060E0FB
:1028500070E0749E6001759ED00C112480919F04DD
:102860009091A004681779070CF05CC000E010E0BC
:10287000369F5001379FB00C11248091A104909194
:10288000A204081719070CF04AC0809044049090E5
:102890004504209FC001219F900D11248C0D9D1D8A
:1028A0008A0D9B1D8E9CF0018F9CF00D9E9CF00D5F
:1028B0001124E80FF91FE454FE4FDE011196922E09
:1028C00001900D929A94E1F7FE013196DE011D967A
:1028D000922E01900D929A94E1F7FE013D96DE0151
:1028E0001796922E01900D929A94E1F7E09146048A
:1028F000F0914704EE9DD001EF9DB00DFE9DB00D0F
:102900001124A80FB91FA454BE4FFE013796822F81
:1029100001900D928A95E1F70F5F1F4FAECF6F5F69
:102920007F4F9CCF4F5F5F4F8ACF62960FB6F89470
:10293000DEBF0FBECDBFDF91CF911F910F91FF90F2
:10294000EF90DF90CF90BF90AF909F908F907F904F
:10295000089590E0FC01EC5BFE4F2491FC01E05DEA
:10296000FE4F8491882399F090E0880F991FFC0115
:10297000EA5DFE4FA591B491FC01E45EFE4F8591A6
:1029800094918FB7F894EC91E22BEC938FBF08955C
:1029900090E0FC01E85FFE4F2491FC01EC5BFE4FF0
:1029A0003491FC01E05DFE4FE491EE2309F43CC05C
:1029B000222339F1233091F038F42130A9F022306C
:1029C00001F584B58F7D12C0273091F02830A1F039
:1029D0002430B9F4809180008F7D03C08091800005
:1029E0008F77809380000DC084B58F7784BD09C038
:1029F0008091B0008F7703C08091B0008F7D80936D
:102A0000B000F0E0EE0FFF1FE45EFE4FA591B49121
:102A10009FB7F894611104C08C913095382302C09F
:102A2000EC913E2B3C939FBF08953FB7F894809163
:102A3000850190918601A0918701B091880126B50A
:102A4000A89B05C02F3F19F00196A11DB11D3FBFE6
:102A5000BA2FA92F982F8827820F911DA11DB11D74
:102A6000BC01CD0142E0660F771F881F991F4A9570
:102A7000D1F70895CF93DF93CDB7DEB762970FB646
:102A8000F894DEBF0FBECDBF789484B5826084BD5C
:102A900084B5816084BD85B5826085BD85B5816062
:102AA00085BD80916E00816080936E0010928100E0
:102AB000809181008260809381008091810081609B
:102AC000809381008091800081608093800080915C
:102AD000B10084608093B1008091B00081608093E8
:102AE000B00080917A00846080937A0080917A00AF
:102AF000826080937A0080917A00816080937A006E
:102B000080917A00806880937A001092C10061E021
:102B10008AE00E94C8148AE00E94A91461E08AE059
:102B20000E94C814E4E6F4E097B1DF018191892B9B
:102B300087B998B18C91892B88B924E0EA36F207DD
:102B400099F789E00E94A91483E00E94A9148BE000
:102B50000E94A9148DE00E94A91460E089E00E94FF
:102B6000C81460E083E00E94C81460E08BE00E941B
:102B7000C81460E08DE00E94C81401E811E061E033
:102B80008DE00E94C81460E08DE00E94C8140150DE
:102B90001109A9F761E089E00E94C81460E089E0AA
:102BA0000E94C81400E811E061E08DE00E94C814A2
:102BB00060E08DE00E94C81401501109A9F710923D
:102BC000800080E18093810081E090E09093890013
:102BD0008093880082E090E090938B0080938A003D
:102BE00080E090E2909387008093860083E2809358
:102BF000B00088E08093B10083E08093B30010922E
:102C0000B400B09A91E090936F0080918100816050
:102C1000809381008091B10081608093B1009DBD5F
:102C200080E58CBD86E0EFEBF6E0DE0111960190C9
:102C30000D928A95E1F72091960130919701263007
:102C40003105A4F4C90101969093970180939601F0
:102C500086E0829FD001839FB00D1124A856BE4FFD
:102C6000FE01319601900D928A95E1F786E0E9EB3D
:102C7000F6E0DE01179601900D928A95E1F720911A
:102C800096013091970126303105A4F4C9010196CF
:102C9000909397018093960186E0829FD001839F55
:102CA000B00D1124A856BE4FFE01379601900D922B
:102CB0008A95E1F786E0E3EBF6E0DE011D960190F0
:102CC0000D928A95E1F72091960130919701263077
:102CD0003105A4F4C9010196909397018093960160
:102CE00086E0829FD001839FB00D1124A856BE4F6D
:102CF000FE013D9601900D928A95E1F726E0822E25
:102D0000912CA12CB12C332433948091A104909167
:102D1000A20420919F043091A0040091A506109177
:102D2000A60640919D0450919E04D80157965C934D
:102D30004E93569759963C932E9358975B969C9337
:102D40008E935A970E941515F801628773878487BE
:102D5000958742805380648075804528462847289F
:102D600081F462837383848395836683778380870A
:102D700091870190F081E02D0680F781E02DC80158
:102D80000995D8011A96CD90DD90ED90FC901D9795
:102D900016964D915D916D917C91199726013701A1
:102DA000441A550A660A770AC301B2011E964D926B
:102DB0005D926D927C92519712964D905D906D90C0
:102DC0007C901597A70196012419350946095709E2
:102DD00052962D933D934D935C9355970E94831B80
:102DE00020E034E244E759E40E94DB1AAB01BC0165
:102DF000D801ED91FC910480F581E02DC801099581
:102E0000F80182859385A485B58586839783A087FD
:102E1000B187E091A506F091A60682819381A481F5
:102E2000B581892B8A2B8B2B89F40E946C19A50103
:102E300094010E94C319660F771FFB01E955F94FF2
:102E4000808191819093A6068093A50630924804D4
:102E5000809148048111FCCF80E0482E80E0582EFC
:102E6000452809F452CF0E9400004FCFFC01108288
:102E700011821282138215821482168217821086A2
:102E80001186128613861486158616861786108A72
:102E9000118A128A138A148A158A168A178A108E42
:102EA000118E0895FC018EE091E09183808312825F
:102EB000138214821582168217821086118612865A
:102EC00013861486158616861786108A118A128A2A
:102ED000138A148A158A10A611A612A613A608959D
:102EE0008F929F92AF92BF92CF92DF92EF92FF921A
:102EF0000F931F93CF93DF938CEB91E09C012C5B9E
:102F00003E4FAC0144595F4FFC0142961182108242
:102F100013821282158214823696E817F907B1F7E8
:102F20004E175F0789F7CA012417350751F7C90102
:102F300024E08434920711F710924504109244045F
:102F400081E090E0909347048093460410924804F7
:102F50008BE1E6E1F1E0A9E4B4E001900D928A95FD
:102F6000E1F786E0E1E3F1E0A4E6B4E001900D9240
:102F70008A95E1F710929A0481E080939B0482E0A5
:102F800080939C048CEB91E090938A01809389015B
:102F9000C3EAD4E08CE3FE0111928A95E9F7CE01F1
:102FA0000E94521787E791E09093A4048093A304B2
:102FB0008FED882E84E0982E86E6F40111928A9592
:102FC000E9F7C4010E9452178BE691E09093E00468
:102FD0008093DF048BE095E00E94361785E295E050
:102FE0000E94361795E4A92E95E0B92E82E6F501E8
:102FF00011928A95E9F7C5010E9452178FE591E079
:10300000909346058093450581E795E00E94361729
:103010008BE895E00E94361727EAC22E25E0D22ED3
:103020008CE2F60111928A95E9F7C6010E945217C7
:1030300083E591E09093A8058093A70533EDE32EF7
:1030400035E0F32E88E6F70111928A95E9F7C7017A
:103050000E94521787E491E09093D4058093D305A2
:103060008FEF95E00E94361789E196E00E943617AF
:103070000BE316E08AE6F80111928A95E9F7C80198
:103080000E9452178BE391E090933C0680933B069D
:1030900087E696E00E94361710928106109282060B
:1030A000109283061092840610928506109286066E
:1030B00010928706109288061092890610928A064E
:1030C00010928B0610928C0610928D0610928E062E
:1030D00010928F061092900610929106109292060E
:1030E00010929306109294061092950610929606EE
:1030F00010929706109298061092990610929A06CE
:1031000010929B0610929C0610929D0610929E06AD
:1031100010929F061092A0061092A1061092A2068D
:103120001092A3061092A406D093A606C093A506FB
:10313000D093A806C093A7069092AA068092A906EB
:10314000B092AC06A092AB06D092AE06C092AD068D
:10315000F092B006E092AF061093B2060093B1066B
:1031600083E090E090939E0480939D0426E030E0FD
:103170003093A00420939F049093A2048093A10411
:10318000109290011092910110929201109293016D
:103190001092970110929601E0E9F1E084EB91E042
:1031A00011861086138612861586148636968E171B
:1031B0009F07B1F78AEF90E0909395018093940177
:1031C00010928B011092C6061092C5061092C80686
:1031D0001092C7061092CA061092C9068FEF9FE0A0
:1031E0009093C0068093BF061092C2061092C1064B
:1031F0001092C4061092C3061092BA061092B90635
:103200009093BC068093BB061092BE061092BD063A
:103210001092B4061092B3061092B6061092B5063C
:103220009093B8068093B706DF91CF911F910F91CD
:10323000FF90EF90DF90CF90BF90AF909F908F90D6
:1032400008958F929F92AF92BF92CF92DF92EF92AA
:10325000FF92CF93DF93EC01688179818A819B8112
:10326000611571058105910521F464E279ED8BE525
:1032700097E02DE133EF41E050E00E94C31949018E
:103280005A019B01AC01A7EAB1E40E94E2196B016B
:103290007C01ACEEB4EFA50194010E94F019DC01B1
:1032A000CB018C0D9D1DAE1DBF1DB7FF03C0019747
:1032B000A109B04888839983AA83BB83BC01CD014F
:1032C0009F77DF91CF91FF90EF90DF90CF90BF90ED
:1032D000AF909F908F9008958F929F92AF92BF92E0
:1032E000CF92DF92EF92FF92609100017091010105
:1032F000809102019091030161157105810591058D
:1033000021F464E279ED8BE597E02DE133EF41E0C4
:1033100050E00E94C31949015A019B01AC01A7EA80
:10332000B1E40E94E2196B017C01ACEEB4EFA5019F
:1033300094010E94F019DC01CB018C0D9D1DAE1D86
:10334000BF1DB7FF03C00197A109B04880930001DA
:1033500090930101A0930201B0930301BC01CD0140
:103360009F77FF90EF90DF90CF90BF90AF909F90AE
:103370008F90089560930001709301018093020182
:10338000909303010895052E97FB1EF400940E946C
:10339000DA1957FD07D00E94F51907FC03D04EF447
:1033A0000C94DA1950954095309521953F4F4F4F29
:1033B0005F4F089590958095709561957F4F8F4FE1
:1033C0009F4F08950E94171AA59F900DB49F900DCE
:1033D000A49F800D911D11240895B7FF0C94E2194C
:1033E0000E94E219821B930B0895A1E21A2EAA1BD8
:1033F000BB1BFD010DC0AA1FBB1FEE1FFF1FA217A5
:10340000B307E407F50720F0A21BB30BE40BF50BA1
:10341000661F771F881F991F1A9469F7609570952A
:10342000809590959B01AC01BD01CF010895A29FAD
:10343000B001B39FC001A39F700D811D1124911D88
:10344000B29F700D811D1124911D0895DB018F9392
:103450009F930E94E219BF91AF91A29F800D911D91
:10346000A39F900DB29F900D1124089597FB072EF6
:1034700016F4009407D077FD09D00E944A1A07FC81
:1034800005D03EF4909581959F4F08957095619574
:103490007F4F0895AA1BBB1B51E107C0AA1FBB1F8A
:1034A000A617B70710F0A61BB70B881F991F5A95D0
:1034B000A9F780959095BC01CD010895EE0FFF1FEF
:1034C0000590F491E02D09945058BB27AA270E943B
:1034D0007C1A0C94261C0E94ED1B38F00E94F41BF1
:1034E00020F039F49F3F19F426F40C94EA1B0EF4F3
:1034F000E095E7FB0C94E41BE92F0E944B1C58F36A
:10350000BA17620773078407950720F079F4A6F5C8
:103510000C946D1C0EF4E0950B2EBA2FA02D0B0110
:10352000B90190010C01CA01A0011124FF27591B08
:1035300099F0593F50F4503E68F11A16F040A22F0E
:10354000232F342F4427585FF3CF4695379527957F
:10355000A795F0405395C9F77EF41F16BA0B620B7E
:10356000730B840BBAF09150A1F0FF0FBB1F661FC5
:10357000771F881FC2F70EC0BA0F621F731F841F08
:1035800048F4879577956795B795F7959E3F08F02E
:10359000B0CF9395880F08F09927EE0F97958795F0
:1035A00008950E94C01B08F481E008950E94FD1B4D
:1035B000E3950C94371C0E94EF1A0C94261C0E9471
:1035C000F41B58F00E94ED1B40F029F45F3F29F0F6
:1035D0000C94E41B51110C946E1C0C94EA1B0E9479
:1035E0004B1C68F39923B1F3552391F3951B550BAD
:1035F000BB27AA2762177307840738F09F5F5F4FC6
:10360000220F331F441FAA1FA9F335D00E2E3AF004
:10361000E0E832D091505040E695001CCAF72BD01C
:10362000FE2F29D0660F771F881FBB1F261737076D
:103630004807AB07B0E809F0BB0B802DBF01FF279F
:1036400093585F4F3AF09E3F510578F00C94E41B7D
:103650000C946E1C5F3FE4F3983ED4F38695779507
:103660006795B795F7959F5FC9F7880F911D969558
:10367000879597F90895E1E0660F771F881FBB1FB4
:10368000621773078407BA0720F0621B730B840B61
:10369000BA0BEE1F88F7E09508950E94541B6894BA
:1036A000B1110C946E1C08950E94531C88F09F5712
:1036B00098F0B92F9927B751B0F0E1F0660F771F56
:1036C000881F991F1AF0BA95C9F714C0B13091F04C
:1036D0000E946D1CB1E008950C946D1C672F782F2B
:1036E0008827B85F39F0B93FCCF386957795679511
:1036F000B395D9F73EF490958095709561957F4F7D
:103700008F4F9F4F0895E89409C097FB3EF4909522
:103710008095709561957F4F8F4F9F4F9923A9F0AA
:10372000F92F96E9BB279395F69587957795679539
:10373000B795F111F8CFFAF4BB0F11F460FF1BC07D
:103740006F5F7F4F8F4F9F4F16C0882311F096E910
:1037500011C0772321F09EE8872F762F05C06623BE
:1037600071F096E8862F70E060E02AF09A95660F77
:10377000771F881FDAF7880F9695879597F9089530
:10378000990F0008550FAA0BE0E8FEEF1616170672
:10379000E807F907C0F012161306E407F50798F0DA
:1037A000621B730B840B950B39F40A2661F0232BF3
:1037B000242B252B21F408950A2609F4A140A6956F
:1037C0008FEF811D811D089597F99F6780E870E054
:1037D00060E008959FEF80EC089500240A94161687
:1037E000170618060906089500240A9412161306EF
:1037F0001406050608950C94EA1B0E94531CD8F386
:10380000E894E0E0BB279F57F0F02AED3FE049EC59
:1038100006C0EE0FBB0F661F771F881F28F0B23A55
:1038200062077307840728F0B25A620B730B840B8C
:10383000E3959A9572F7803830F49A95BB0F661F1E
:10384000771F881FD2F790480C94C01D092E03944F
:10385000000C11F4882352F0BB0F40F4BF2B11F47D
:1038600060FF04C06F5F7F4F8F4F9F4F0895EF93AE
:10387000E0FF07C0A2EA2AED3FE049EC5FEB0E94BF
:103880007C1A0E94261C0F90039401FC9058E8E6D5
:10389000F0E00C94FA1D57FD9058440F551F59F055
:1038A0005F3F71F04795880F97FB991F61F09F3F2D
:1038B00079F087950895121613061406551FF2CF56
:1038C0004695F1DF08C0161617061806991FF1CFA6
:1038D00086957105610508940895E894BB276627CD
:1038E0007727CB0197F908950E94C01B08F48FEF4A
:1038F00008950E948C1C0C94261C0E94ED1B38F02D
:103900000E94F41B20F0952311F00C94E41B0C94FE
:10391000EA1B11240C946E1C0E944B1C70F3959FA3
:10392000C1F3950F50E0551F629FF001729FBB27B6
:10393000F00DB11D639FAA27F00DB11DAA1F649F52
:103940006627B00DA11D661F829F2227B00DA11D05
:10395000621F739FB00DA11D621F839FA00D611D8B
:10396000221F749F3327A00D611D231F849F600DAC
:10397000211D822F762F6A2F11249F5750409AF0D5
:10398000F1F088234AF0EE0FFF1FBB1F661F771F61
:10399000881F91505040A9F79E3F510580F00C942C
:1039A000E41B0C946E1C5F3FE4F3983ED4F38695C1
:1039B00077956795B795F795E7959F5FC1F7FE2BCC
:1039C000880F911D9695879597F90895FA01EE0F46
:1039D000FF1F309621053105A1F16115710561F4D4
:1039E0008038BFE39B0749F168949038810561F006
:1039F0008038BFEF9B0741F099234AF5FF3FE1056F
:103A00003105210519F1E8940894E795D901AA2315
:103A100029F4AB2FBE2FF85FD0F310C0FF5F70F416
:103A2000A695E0F7F73950F019F0FF3A38F49F7790
:103A30009F930DD00F9007FC9058089546F00C947A
:103A4000EA1B60E070E080E89FE308954FE79F770E
:103A50005F934F933F932F930E94581E2F913F9156
:103A60004F915F910E94791C0C948C1D9F930E9432
:103A7000FD1B0F9007FCEE5F0C94371C19F416F435
:103A80000C94EA1B0C94BE1D0E94531CB8F399239E
:103A9000C9F3B6F39F57550B87FF0E94CC1D002436
:103AA000A0E640EA900180585695979528F4805CEE
:103AB000660F771F881F20F026173707480730F456
:103AC000621B730B840B202931294A2BA69517946E
:103AD0000794202531254A2758F7660F771F881F3E
:103AE00020F026173707480730F4620B730B840B5E
:103AF000200D311D411DA09581F7B901842F9158EA
:103B0000880F96958795089529F416F00C94E41B78
:103B10000C946D1C0C94EA1B0E94531CA8F396385D
:103B2000A0F707F80F92E8942BE33AEA48EB5FE737
:103B30000E948F1C0F920F920F924DB75EB70F929B
:103B40000E94A01EE6E8F0E00E94D31D4F915F9115
:103B5000EF91FF91E595EE1FFF1F49F0FE57E068DA
:103B60004427EE0F441FFA95E1F74195550B0E944B
:103B70001A1E0F9007FE0C940E1E08959F3F31F001
:103B8000915020F4879577956795B795880F911D8B
:103B90009695879597F9089591505040660F771F35
:103BA000881FD2F70895DF93CF931F930F93FF924F
:103BB000EF92DF927B018C01689406C0DA2EEF0150
:103BC0000E948C1CFE01E894A591259135914591A8
:103BD0005591A6F3EF010E947C1AFE019701A801FE
:103BE000DA9469F7DF90EF90FF900F911F91CF91DA
:103BF000DF9108959F938F937F936F93FF93EF933C
:103C00009B01AC010E94791CEF91FF910E94D31D92
:103C10002F913F914F915F910C94791C9B01AC01C6
:103C200060E070E080E89FE30C94DB1A0C94E41BE6
:103C30000C94BE1D0E94531CD8F39923C9F3940F12
:103C4000511DA3F39150504094F059F0882332F065
:103C5000660F771F881F91505040C1F79E3F510556
:103C60002CF7880F911D9695879597F908955F3FDA
:103C7000ACF0983E9CF0BB27869577956795B795F5
:103C800008F4B1609395C1F7BB0F58F711F460FFCA
:103C9000E8CF6F5F7F4F8F4F9F4FE3CF0C946E1C29
:103CA00016F00C94BE1D0C94EA1B68940C94E41B53
:103CB0000E94531CA8F39923C1F3AEF3DF93CF9373
:103CC0001F930F93FF92C92FDD2788232AF0219796
:103CD000660F771F881FDAF720E030E040E85FEBDF
:103CE0009FE3883920F0803E38F021968F770E943C
:103CF000651AEEEAF0E004C00E94651AEBEDF0E010
:103D00000E94D31D8B01BE01EC01FB2E6F57710980
:103D10007595771F880B990B0E94851B28E132E768
:103D200041E35FE30E948C1CAF2D9801AE01FF9030
:103D30000F911F91CF91DF910E947C1A0C94261C49
:103D4000FA01DC01AA0FBB1F9B01AC01BF5728F48D
:103D5000222733274427507820C0B75190F4AB2F47
:103D60000024469537952795011CA395D2F3002092
:103D700071F0220F331F441FB395DAF30ED00C9469
:103D8000641A61307105A0E88A07B94630F49B01D6
:103D9000AC016627772788279078309621F020831A
:103DA00031834283538308950F931F93CF93DF93FF
:103DB0008230910510F482E090E0E091CD06F09120
:103DC000CE0620E030E0A0E0B0E0309719F140816D
:103DD00051810281138148175907C8F0841795074C
:103DE00069F4109731F012960C93129713961C9366
:103DF00027C00093CD061093CE0622C021153105B1
:103E000019F04217530718F49A01BD01EF01DF01C1
:103E1000F801DBCF21153105F9F0281B390B2430CF
:103E2000310580F48A819B816115710521F0FB01C8
:103E30009383828304C09093CE068093CD06FE01C7
:103E4000329644C0FE01E20FF31F819391932250FA
:103E50003109398328833AC02091CB063091CC06B2
:103E6000232B41F420910601309107013093CC06B9
:103E70002093CB06209104013091050121153105D5
:103E800041F42DB73EB74091080150910901241B20
:103E9000350BE091CB06F091CC06E217F307A0F4C6
:103EA0002E1B3F0B2817390778F0AC014E5F5F4F90
:103EB0002417350748F04E0F5F1F5093CC064093F0
:103EC000CB068193919302C0E0E0F0E0CF01DF9157
:103ED000CF911F910F910895CF93DF93009709F42D
:103EE00081C0FC01329713821282A091CD06B0915D
:103EF000CE06109781F420813181820F931F20918B
:103F0000CB063091CC062817390751F5F093CC0633
:103F1000E093CB0667C0ED0120E030E0CE17DF076D
:103F200040F44A815B819E0141155105F1F0EA019F
:103F3000F5CFD383C28340815181840F951FC81769
:103F4000D90759F488819981840F951F029691832E
:103F500080838A819B81938382832115310529F493
:103F6000F093CE06E093CD063DC0E901FB83EA83E2
:103F700049915991C40FD51FEC17FD0761F4808159
:103F80009181840F951F0296E9019983888382812C
:103F900093819B838A83E0E0F0E012968D919C915F
:103FA0001397009719F0FD01DC01F7CF8D919C91DB
:103FB00011979D012E5F3F4F820F931F2091CB06DB
:103FC0003091CC062817390769F4309729F41092FC
:103FD000CE061092CD0602C013821282B093CC0698
:103FE000A093CB06DF91CF91089581E090E0F89403
:083FF0000C94FA1FF894FFCFB6
:103FF800010000000000CF062000000000000000C3
:104008000000140D140D030405060708090A0B0126
:104018000200161718191A1B1112101314151C1D5B
:104028001E010204081020000000006C0D200DEE97
:104038000D0A01000000006D0D1E0DE303D70000FE
:104048000000006E0D1C0D1006E201000000006F5C
:104058000D1A0D4A074F0200000000700D180DF5EB
:1040680008C40200000000710D160DDD0A5A030095
:00000001FF
